:040000002EEF00F0EF
:100008004E82FACF0EF0FBCF0FF0D9CF10F0DACF37
:1000180011F0F2AC12EF00F014EF00F024EF00F052
:10002800A0A219EF00F01BEF00F024EF00F0A1A24E
:1000380020EF00F022EF00F024EF00F07DEC09F053
:1000480011C0DAFF10C0D9FF0FC0FBFF0EC0FAFFC6
:100058004E9211005AEF09F0AEEF00F0265009E178
:10006800810E255CD8A03BEF00F03DEF00F041EF9A
:1000780000F0000E266E800E256E2A5009E1810ED2
:10008800295CD8A04AEF00F04CEF00F050EF00F0E8
:10009800000E2A6E800E296E285009E1410E275C59
:1000A800D8A059EF00F05BEF00F05FEF00F0000E12
:1000B800286E400E276E2C5009E1410E2B5CD8A00B
:1000C80068EF00F06AEF00F035EF01F0000E2C6EDB
:1000D800400E2B6E35EF01F0265009E1410E255CEC
:1000E800D8A079EF00F07BEF00F07FEF00F0000E72
:1000F800266E400E256E2A5009E1410E295CD8A0D3
:1001080088EF00F08AEF00F08EEF00F0000E2A6E04
:10011800400E296E285009E1810E275CD8A097EF80
:1001280000F099EF00F09DEF00F0000E286E800EB1
:10013800276E2C5009E1810E2B5CD8A0A6EF00F0A9
:10014800A8EF00F035EF01F0000E2C6E800E2B6E3C
:1001580035EF01F021EEF6F0DF50000AD8B432EFA7
:1001680000F0010AD8B470EF00F0030AD8B432EFF7
:1001780000F0010AD8B470EF00F035EF01F025C0A7
:1001880035F026C036F029C033F02AC034F02B50A1
:100198008008256E2C50D8A0E82A0008266E275023
:1001A8008008296E2850D8A0E82A00082A6E35C091
:1001B80027F036C028F033C02BF034C02CF04AEFBB
:1001C80001F025C035F026C036F027C033F028C02E
:1001D80034F029508008256E2A50D8A0E82A000853
:1001E800266E35508008296E3650D8A0E82A0008B7
:1001F8002A6E2B504008276E2C50D8A0E82A0008F9
:10020800286E25EEFAF0DECF2DF0DDCF2EF033503C
:100218002D5C2B6E34502E582C6E4AEF01F025C001
:1002280035F026C036F029C033F02AC034F027C094
:1002380025F028C026F02BC029F02CC02AF0335016
:100248004008276E3450D8A0E82A0008286E355098
:1002580040082B6E3650D8A0E82A00082C6E4AEFCA
:1002680001F021EEF6F0DF50000AD8B44AEF01F0B1
:10027800010AD8B4C3EF00F0030AD8B4E5EF00F0E0
:10028800010AD8B413EF01F04AEF01F02550261007
:10029800D8B451EF01F053EF01F056EF01F0250605
:1002A800D8A026062A5007E1800E295CD8B05FEF57
:1002B80001F061EF01F065EF01F0294A2A2A74EF95
:1002C80001F02A5009E1810E295CD8A06EEF01F0F7
:1002D80070EF01F074EF01F0000E2A6E800E296EA7
:1002E800285009E1400E275CD8A07DEF01F07FEF90
:1002F80001F083EF01F0000E286E3F0E276E2C50A0
:1003080009E1400E2B5CD8A08CEF01F08EEF01F0D4
:1003180092EF01F0000E2C6E3F0E2B6E27C02DF0D1
:1003280028C02EF0D8902E322D32D8902E322D3271
:10033800D8902E322D322DC031F02EC032F02BC085
:100348002DF02CC02EF0D8902E322D32D8902E328F
:100358002D32D8902E322D322DC02FF02EC030F0F5
:1003680031C02DF032C02EF0070ED8902D362E3623
:10037800E82EB9EF01F025502D24336E26502E209B
:10038800346E31C035F032C036F0E5EF01F0F80ECA
:1003980033241B6E010E34201C6E25C01DF026C0B0
:1003A8001EF029C01FF02AC020F035C021F036C049
:1003B80022F0BAEC09F0800E3326000E3422354ABA
:1003C800362A35502F5C36503058D8B0EEEF01F051
:1003D800F0EF01F0CBEF01F0120025EEF8F012502B
:1003E800DE5C1350DE58D8A0FCEF01F0FEEF01F000
:1003F8000BEF02F025EEFAF01450DE5C1550DE58D3
:10040800D8B009EF02F00BEF02F054EF02F0040E3F
:100418004FEF03F012C01EF013C01FF025EEFAF0E4
:10042800DECF17F0DDCF18F01450175C126E1550A0
:100438001858136E1EC014F01FC015F03BEF03F0E0
:1004480025EEF8F0DECF17F0DDCF18F01250175C6C
:10045800126E13501858136E25EEFAF0DECF17F00F
:10046800DDCF18F01450175C146E15501858156E1F
:100478003BEF03F012C01EF013C01FF014C012F0BF
:1004880015C013F025EEF8F0DECF17F0DDCF18F029
:100498001E50175C146E1F501858156E3BEF03F072
:1004A80021EEF6F0DF50000AD8B43BEF03F0010A62
:1004B800D8B40EEF02F0030AD8B424EF02F0010A10
:1004C800D8B43EEF02F03BEF03F014C017F0070E6C
:1004D8001716010E186E172A74EF02F0D890183606
:1004E800172E72EF02F01850FF0A196E14C01AF096
:1004F80015C01BF0D8901B321A32D8901B321A3212
:10050800D8901B321A32070ED8901A361B36E82EAE
:1005180088EF02F0F80E1A241C6E010E1B201D6EC7
:1005280012501C24D96E13501D20DA6E1950DF1694
:100538004EEF03F014C017F0070E1716010E186ED1
:10054800172AA9EF02F0D8901836172EA7EF02F055
:1005580014C019F015C01AF0D8901A321932D89070
:100568001A321932D8901A321932070ED890193621
:100578001A36E82EBAEF02F0F80E19241B6E010E97
:100588001A201C6E12501B24D96E13501C20DA6ED0
:100598001850DF124EEF03F014C017F0070E1716AD
:1005A800010E186E172ADBEF02F0D8901836172EB6
:1005B800D9EF02F014C019F015C01AF0D8901A3209
:1005C8001932D8901A321932D8901A321932070EC5
:1005D800D89019361A36E82EECEF02F0F80E1924E6
:1005E8001B6E010E1A201C6E12501B24D96E13505C
:1005F8001C20DA6E1850DF1A4EEF03F014C017F003
:1006080015C018F0D89018321732D890183217320F
:10061800D89018321732070ED89017361836E82EA9
:1006280010EF03F0F80E1724196E010E18201A6E39
:1006380012501924D96E13501A20DA6EDF501B6E2F
:100648001B501E6E1F6A14C017F0070E17161728C6
:10065800186E32EF03F0D8901F321E32182E2FEF8B
:1006680003F0010E1E16000E1F164EEF03F0165073
:10067800000AD8B469EF02F0010AD8B49EEF02F07C
:10068800030AD8B4D0EF02F0010AD8B402EF03F09D
:100698004EEF03F01E5012000001636FF7C1E8FF30
:1006A800010AD8A45AEF03F05CEF03F05FEF03F000
:1006B800020EE8CFF7F13D500001635D646F656B92
:1006C800D8A06507D89064376537D8906437653700
:1006D800080E6427000E652344C042F045C043F06D
:1006E800645142266551432220EE42F0DECFF6FFE8
:1006F800DDCFF7FF0800F5CF40F0020E4226000ECE
:10070800432220EE42F0DECFF6FFDDCFF7FF0800F0
:10071800F550646F656B4206D8A0430620EE42F0A0
:10072800DECFF6FFDDCFF7FF0800F5CF60F06451AC
:10073800616F6051646F61C065F044C042F045C0AC
:1007480043F06451422665514322000E676F000E44
:10075800666F53EF04F0000E696F000E686F3DEF8F
:1007680004F04050685D000E6959D8B0BEEF03F040
:10077800C0EF03F02AEF04F020EE42F0DECFF6FFE0
:10078800DDCFF7FF0800F5CF60F068C061F0070E15
:100798006117010E626F612BD4EF03F0D8906237B6
:1007A800612FD2EF03F00001625160150009D8B43F
:1007B800E0EF03F0E2EF03F0F4EF03F068513724C1
:1007C800126E69513820136E66513924146E6751C0
:1007D8003A20156E010E166EF1EC01F004EF04F0EC
:1007E80068513724126E69513820136E66513924C6
:1007F800146E67513A20156E000E166EF1EC01F07A
:10080800070E00016815606F000E6915616F070E0D
:1008180060196111D8A413EF04F015EF04F03AEF52
:1008280004F0FF0E4024606F616BFF0E612360517E
:10083800685D61516959D8B024EF04F026EF04F0DF
:100848003AEF04F0424A432A3AEF04F06851372459
:10085800126E69513820136E66513924146E67512F
:100868003A20156E000E166EF1EC01F00001684B8F
:10087800692B415040C060F0616B6027000E612316
:100888006051685D61516959D8A04DEF04F04FEF90
:1008980004F0B5EF03F0424A432A664B672B3F50FA
:1008A800606F616B6051665D61516759D8A05FEFF9
:1008B80004F061EF04F0AFEF03F0F7C1E8FF020ABC
:1008C800D8A469EF04F06BEF04F08BEF04F037C0A5
:1008D80025F038C026F039C027F03AC028F041503A
:1008E80040C060F0616B6027000E612337506025BF
:1008F800296E385061212A6E3F5039242B6E000E24
:100908003A202C6E30EC00F0010EE8CFF7F112001F
:1009180045EF05F0000E0001806F000E7F6F496AF9
:10092800486A4C04D8A49BEF04F09DEF04F0A1EFB3
:1009380004F0040E4A6E66EF05F04D04D8A4A7EF44
:1009480004F0A9EF04F066EF05F0010E4A6E66EFB9
:1009580005F04D50D8A4B3EF04F0B5EF04F0B8EFAC
:1009680004F04A6A66EF05F082B0BDEF04F0BFEF0D
:1009780004F066EF05F0020E4A6E7FC001F080C0F9
:1009880002F0000E82B0010E036E5DEC07F000016C
:100998007F4B802B66EF05F04B50D8A4D6EF04F0C0
:1009A800D8EF04F066EF05F0000E026E000E016E3F
:1009B80042EC0AF04D50D8A4E4EF04F0E6EF04F05E
:1009C800E8EF04F0B5EF04F0A70E00017F5D070E15
:1009D8008059D8B0F2EF04F0F4EF04F000EF05F01E
:1009E8007FC001F080C002F0000E82B0010E036EDD
:1009F8005DEC07F0CBEF04F04D6A030E4A6E66EF2C
:100A080005F0010E4B6E8992496A486AB5EF04F009
:100A180089824C50D8A413EF05F015EF05F017EFB5
:100A280005F0B5EF04F0F40E48601DEF05F01FEF78
:100A380005F037EF05F0080E4918D8A426EF05F0A1
:100A480028EF05F02AEF05F0496A482A000E056EDE
:100A5800010E066E48C007F049C008F06AEC08F0BD
:100A6800492A66EF05F0496A486A4B6A66EF05F05D
:100A78004A6A000E026E000E016E42EC0AF066EF42
:100A880005F04A500C6E0D6A0D50000AD8B44FEFAD
:100A980005F03CEF05F00C50000AD8B48EEF04F0D6
:100AA800010AD8B4ADEF04F0030AD8B4D0EF04F0CB
:100AB800010AD8B405EF05F0070AD8B40CEF05F021
:100AC8003CEF05F0A3EC0AF07E0E0124096EF90E46
:100AD80002200A6E5AEC0AF0A1921200000EE8CF2A
:100AE800F7F100016C51705D736F6D517159746F3E
:100AF8006AC012F06BC013F0C5EC06F0125000018A
:100B0800735F1350745BD890743373336C517327CD
:100B18006D517423734B742B3F506E25756F000E07
:100B28006F21766F7507D8A076076CC060F06DC02E
:100B380061F06EC062F06FC063F070C064F071C0A5
:100B480065F075C066F076C067F0000E686F0FEC50
:100B580006F0CDEF05F073C037F074C038F06EC002
:100B680039F06FC03AF06AC0F6FF6BC0F7FF0800B3
:100B7800F55050EC03F0415040C03BF03C6A3B2636
:100B8800000E3C223B50000173273C5074236A4BF3
:100B98006B2B6AC0F6FF6BC0F7FF0800F550000921
:100BA800D8A4D9EF05F0DBEF05F0AFEF05F0020EA2
:100BB80000017219D8A4E3EF05F0E5EF05F0F9EFAD
:100BC80005F06CC060F06DC061F06EC062F06FC07F
:100BD80063F070C064F071C065F075C066F076C0EF
:100BE80067F0020E686F0FEC06F0010EE8CFF7F120
:100BF8006CC025F06DC026F06EC027F06FC028F0DD
:100C080070C029F071C02AF075C02BF076C02CF0A6
:100C180030EC00F01200F7C1E8FF010AD8A417EF82
:100C280006F019EF06F01CEF06F0020EE8CFF7F118
:100C380060C037F061C038F044EF06F062C039F0A8
:100C480063C03AF036EF06F037C012F038C013F040
:100C580039C014F03AC015F068C016F0F1EC01F094
:100C6800394A3A2A39500001665D3A506759D8B076
:100C780040EF06F042EF06F028EF06F0374A382A30
:100C880037500001645D38506559D8B04EEF06F012
:100C980050EF06F022EF06F0F7C1E8FF020AD8A4E9
:100CA80058EF06F05AEF06F06FEF06F060C025F037
:100CB80061C026F062C027F063C028F064C029F044
:100CC80065C02AF066C02BF067C02CF030EC00F04D
:100CD800010EE8CFF7F11200AE0EFFEC0AF0810E1C
:100CE800FFEC0AF07F0EFFEC0AF0A40EFFEC0AF00E
:100CF800A60EFFEC0AF0200EFFEC0AF0020EFFEC45
:100D08000AF0000EFFEC0AF0100EFFEC0AF0B00E2D
:100D1800FFEC0AF0400EFFEC0AF0A10EFFEC0AF01F
:100D2800A80EFFEC0AF03F0EFFEC0AF0C80EFFEC2D
:100D38000AF0D30EFFEC0AF0000EFFEC0AF0DA0E10
:100D4800FFEC0AF0120EFFEC0AF0D50EFFEC0AF0E9
:100D5800A00EFFEC0AF0D90EFFEC0AF0250EFFEC0E
:100D68000AF0DB0EFFEC0AF0340EFFEC0AF08D0EF1
:100D7800FFEC0AF0140EFFEC0AF0AF0EFFEC0AF0DD
:100D88001200000E186E000E176EFBEF06F012C070
:100D9800F6FF13C0F7FF0800F5CF14F03D50145CC0
:100DA800156E166AD8A01606D89015361636D8903D
:100DB80015361636080E1526000E162244C042F0C7
:100DC80045C043F0155042261650432220EE42F00B
:100DD800DECFF6FFDDCFF7FF0800F5501726000E2F
:100DE800182241501726000E1822124A132A12C040
:100DF800F6FF13C0F7FF0800F5500009D8A407EF65
:100E080007F009EF07F0CBEF06F04150175E000E30
:100E1800185A17C012F018C013F01200136EC6BA91
:100E280018EF07F01AEF07F05CEF07F01350040D06
:100E3800010EF326000EF422AD0EF324F66E730EA7
:100E4800F420F76E0800F5CFC7FF1350040DAD0E60
:100E5800F324F66E730EF420F76E0800F5CFC6FF84
:100E6800C56A1350040D020EF326000EF422AD0ECF
:100E7800F324F66E730EF420F76E0800F5CFC8FF62
:100E88001350040D030EF326000EF422AD0EF324C6
:100E9800F66E730EF420F76E0800F5CF12F01246C6
:100EA8001246124694501218F70B1218946EC68AFE
:100EB800120001C004F002C005F0D89005320432D7
:100EC800D89005320432D8900532043204C007F0B5
:100ED80005C008F00150070B096E0304D8A477EF8A
:100EE80007F079EF07F08FEF07F009C004F0010E63
:100EF800056E042A82EF07F0D8900536042E80EF9D
:100F080007F0000E0724D96E010E0820DA6E05508E
:100F1800DF12A6EF07F009C004F0010E056E042ADF
:100F280098EF07F0D8900536042E96EF07F0055095
:100F3800FF0A066E000E0724D96E010E0820DA6E2D
:100F48000650DF16120092EC0AF0000E136E000E27
:100F5800126E2AEC0AF08982A092180E126E090EFF
:100F6800136E0EEC0BF0A082F28CF28E80B4BFEF01
:100F780007F0C1EF07F0CFEF07F04B50D8A4C7EF49
:100F880007F0C9EF07F0CFEF07F0010E4D6EE5EC63
:100F980008F0D2EF07F04D6A33EC09F080B6D7EFCE
:100FA80007F0D9EF07F0DFEF07F0010E4C6EBEEC4B
:100FB80008F0E2EF07F04C6A33EC09F04B04D8A4D0
:100FC800E8EF07F0EAEF07F0BAEF07F00CEC09F0EA
:100FD800BAEF07F02EEF00F00001606F000EE8CFC7
:100FE800F7F1000E0001626F000E616FF80E6125C7
:100FF800D96E010E6221DA6E60C0DFFF614B622B91
:10100800040E625DD8A00BEF08F00DEF08F0FAEFC0
:1010180007F0010EE8CFF7F1000E266E000E256EE0
:10102800000E286E000E276E25EEF8F0DECF37F0A2
:10103800DDCF38F0010E3724296E000E38202A6ED5
:1010480025EEFAF0DECF39F0DDCF3AF0010E392483
:101058002B6E000E3A202C6E30EC00F01200126E4F
:1010680052EF08F07F0EE8CFF8F5000EE8CFF9F55B
:101078003F0EE8CFFAF5000EE8CFFBF565EF08F074
:101088003F0EE8CFF8F5000EE8CFF9F57F0EE8CF70
:10109800FAF5000EE8CFFBF565EF08F01250000AEC
:1010A800D8B436EF08F0010AD8B444EF08F0030AC0
:1010B800D8B436EF08F0010AD8B444EF08F065EF69
:1010C80008F021EEF6F012C0DFFF120008C009F0A8
:1010D80007500524D96E000E0620DA6EDF500A6E1E
:1010E800092A79EF08F0D8900A32092E77EF08F02C
:1010F8000A50010B0B6E0B04D8A485EF08F087EF9C
:1011080008F08FEF08F0000E026E000E016E42EC40
:101118000AF095EF08F0000E026E5A0E016E42ECCE
:101128000AF0120012C044F013C045F0020E122655
:10113800000E132212C0F6FF13C0F7FF0800F5CF08
:101148003DF0020E1226000E132212C0F6FF13C045
:10115800F7FF0800F5CF3EF0020E1226000E13220C
:1011680012C0F6FF13C0F7FF0800F5CF3FF014C018
:1011780041F01200000E12EC07F0000E9CEC09F092
:10118800B10E126E730E136E000E146E96EC08F00C
:10119800000E33EC08F0F90E00016A6F7F0E6B6FDA
:1011A800000E6D6F200E6C6F000E6F6F200E6E6F4D
:1011B800F8C570F0F9C571F0010E726F72EC05F0A8
:1011C8001200000E12EC07F0000E9CEC09F0B10EB4
:1011D800126E730E136E000E146E96EC08F0000E6D
:1011E80033EC08F0E90E00016A6F7F0E6B6F000E9A
:1011F8006D6F200E6C6F000E6F6F200E6E6FF8C54E
:1012080070F0F9C571F0010E726F72EC05F0120002
:10121800000E12EC07F0000E9CEC09F0B10E126EF5
:10122800730E136E000E146E96EC08F0000E33EC7D
:1012380008F0F30E00016A6F7F0E6B6F000E6D6F82
:10124800200E6C6F000E6F6F200E6E6FF8C570F079
:10125800F9C571F0010E726F72EC05F01200000E04
:1012680012EC07F0000E9CEC09F0B10E126E730E32
:10127800136E000E146E96EC08F0000E33EC08F0B6
:10128800FD0E00016A6F7F0E6B6F000E6D6F200EF2
:101298006C6F000E6F6F200E6E6FF8C570F0F9C599
:1012A80071F0010E726F72EC05F0120001EEF5F0AC
:1012B80014EE0BF0EE6AE550E150FCE1E250FAE181
:1012C80001EE00F0F50EEE6AE806FDE100EE77F0BB
:1012D8000E0EEE6AE806FDE100EE3DF0110EEE6A34
:1012E800E806FDE14E904E92000EF86E0001A7EF61
:1012F80007F0A19246C009F047C00AF05AEC0AF07C
:1013080000017B517C11D8B48CEF09F08EEF09F005
:101318009BEF09F002D89BEF09F00500FA6E7B51AC
:10132800FD6E7C51FE6EF850FF6EFA5012001200EE
:101338003B6EB3EC0AF03B5033EC08F070EC06F06F
:10134800000EF0EC07F0000EE8CFFCF5000EE8CF39
:10135800FDF5000EE8CFFEF5000EE8CFFFF5010E13
:10136800E8CFF7F1FF0EE8CFF5F112001D501F5C32
:10137800236E1E502058246E1DC014F01EC015F098
:1013880021C016F022C017F011EC0AF0899A898C56
:101398001BC013F01CC014F023C015F024C016F0B5
:1013A800D8EC09F0898A120013C017F014C018F09D
:1013B800E7EF09F017C0D9FF18C0DAFFDF50DEECFD
:1013C8000AF0174A182A1506D8A01606152806E1A5
:1013D8001628D8A4F2EF09F0F4EF09F0DEEF09F0CF
:1013E8001200000E166E000E156E05EF0AF0150EAF
:1013F800146EC60EE82EFED7142EFCD700D0154A60
:10140800162A1250155C13501658D8A00EEF0AF081
:1014180010EF0AF0FBEF09F0120014500F0BFFEC6D
:101428000AF014C018F015C019F0040E1A6ED890FE
:10143800193218321A2E1BEF0AF018501009FFEC57
:101448000AF01650B009FFEC0AF0120012C014F0AE
:1014580013C015F0D89015321432D89015321432C2
:101468001450676E12C014F0030E1416143AF00EDE
:1014780014166650CF0B1410666E120001C003F0EC
:1014880002C004F0D89004320332D89004320332F8
:101498000350676E01C003F0030E0316033AF00E03
:1014A80003166650CF0B0310666E1200B1A45FEFEF
:1014B8000AF061EF0AF069EF0AF0B1900A50B36ED2
:1014C80009C0B2FFB1806DEF0AF00A50B36E09C0CF
:1014D800B2FF1200B46AB36AB26AB2CF46F0B3CFB1
:1014E80047F0A192A0822A0E126E160E136E0EEC11
:1014F8000BF0010EB16E1200896A8A6A8B6A9D0E22
:10150800926E9368D10E946EC00E0F013A6F3F0E23
:10151800396F010E386F616AF18E120013EC0BF00F
:10152800F6EC0AF080EC0AF0C2EC0AF007EC0BF0DB
:10153800D0EC0AF0EBEC0AF06EEC0AF01200B18283
:10154800B2CF08F0B3CF07F00750036E0850056E0E
:1015580003C006F005C001F006C002F012008B942B
:10156800010E136E2C0E126EF5EC09F08B84010E31
:10157800136E2C0E126EF5EC09F01200700ED36E7D
:10158800040ED26E400E9B6ED2AECDEF0AF0CFEFB6
:101598000AF0C8EF0AF012001C0E666E646A800E2C
:1015A800656E010E636E686A340E676EE70E0F0192
:1015B80049171200126E12C0C9FF9EA6E6EF0AF084
:1015C800E8EF0AF0E1EF0AF09E96C9501200CC6AE3
:1015D800CF6ACE6ACECF7DF0CFCF7EF09E90010E3F
:1015E800CD6E1200400EC76E010EC66E010EC86E9B
:1015F8009496C69A1200136E899A899C1350DEEC51
:101608000AF0898A1200680EBB6EBC6A9E92050EAB
:10161800BA6E120012C07BF013C07CF01200D09E8C
:04162800120012009A
:1073AC000001400100000020007F00100005880152
:1073BC00000798010008A801000BB8010009D801CA
:1073CC00000BF801000A18020006380200084802F7
:1073DC000008580200096802000988020006A80289
:1073EC000009B8020006D802000BE802000B0803E3
:1073FC00000B2803000B4803000B6803000B8803E9
:10740C00000BA803000BC803000BE803000B0804D7
:10741C00000B2804000748040006580400096804FF
:10742C00000A88040009A804000AC804000BE80438
:10743C00000A0805000A2805000A4805000A680524
:10744C00000A8805000AA805000AC805000AE80514
:10745C0000080806000A1806000A3806000A580632
:10746C00000A7806000A9806000AB806000AD80630
:10747C00000AF806000A1807000A3807000958071E
:10748C00000A7807000A9807000AB807000AD8070C
:10749C00000AF807000A180800083808000B48080A
:1074AC0000086808000B7808000B98080007B8085B
:1074BC00000AC808000AE808000A0809000A280996
:1074CC00000A480900086809000A780900099809A7
:1074DC000008B8090008C8090009D8090008F8090B
:1074EC00000A080A000A280A000A480A000A680A60
:1074FC00000A880A000AA80A0008C80A0008D80A64
:10750C00000AE80A000A080B000A280B0009480BBD
:10751C000009680B0009880B0009A80B0006C80BB2
:10752C000009D80B000AF80B000A180C0000000028
:10753C0000000000000000000000000000003030DF
:10754C0078787878783030300000303000000000E7
:10755C00CCCCCCCC000000000000000000000000EF
:10756C0000300330033003FE0798019801CC00CCA7
:10757C0000FF01660066006600000000000000309D
:10758C00003000FC00FE0136003600FE00FC01B0AD
:10759C0001B001FE01FC00300030000000000000D2
:1075AC0000000000040E060E078E03C001E0007000
:1075BC000038001C008E03870383030000000000CA
:1075CC00007000D800CC00CC006C0038003C003EB1
:1075DC00006603E601C600EE013C030000003838EB
:1075EC003830301800000000000000000000E030CF
:1075FC0038181C1C1C1C1C1C183830E000001C30DB
:10760C007060E0E0E0E0E0E06070301C0000000042
:10761C000000000000B601B601FC007800FE017805
:10762C0000FC00B601B601000000000000000000E4
:10763C0000000000000000300030003000FE01FEB1
:10764C00013000300030000000000000000000009D
:10765C00000000000000003838383018000000002E
:10766C0000000000000000000000000000FE01FE11
:10767C0001000000000000000000000000000000FD
:10768C000000000000000000003838380000000046
:10769C00000004000600078003C001E00070003801
:1076AC00001C000E0007000300000000000000F8A2
:1076BC0000FE03060303078307C306630633061B9A
:1076CC00060F0607060603FE03F80000000000C0C4
:1076DC0000E000F800F800C000C000C000C000C00E
:1076EC0000C000C000C000F807F80700000000FC54
:1076FC0001FE030707030603078003C001E00070C7
:10770C000038001C000E00FF07FF0700000000FC03
:10771C0001FE030707030600060007F803F8010043
:10772C0003000603060707FE03FC0100000000C06F
:10773C0001E001F001B8019C018E0187018301FF7A
:10774C0007FF07800180018001800100000000FF1D
:10775C0007FF07030003000300FF01FE03000700FF
:10776C0006000603060707FE03FC0100000000E00C
:10777C0001F00138001C000E000600FF01FF03079A
:10778C0007030603060707FE03FC0100000000FFC9
:10779C0007FF070003000380018001C000C00060E8
:1077AC00006000300030001800180000000000F8E5
:1077BC0000FC018E03060306038E03FC01FE030787
:1077CC0007030603060707FE03FC0100000000FC8C
:1077DC0001FE030707030603060707FE07FC070065
:1077EC00038003C001E0007C003C000000000000AE
:1077FC001C1C1C000000001C1C1C000000000000D5
:10780C003838380000003838383030180000008024
:10781C0001C001E000700038001C000E000E001CBE
:10782C000038007000E000C0018001000000000082
:10783C0000000000000000FE03FE0300000000FE3C
:10784C0003FE030000000000000000000000000622
:10785C00000E001C0038007000E000C001C001E008
:10786C0000700038001C000E00060000000000FC38
:10787C0000FE01870303038303C001E000700030A6
:10788C00003000300000003000300000000000FC30
:10789C0001FE030603F306FB06DB06DB06DB06DB59
:1078AC0006FB03F3010700FE01F8010000000030A5
:1078BC00003000780078007800CC00CC00CC00863A
:1078CC0001FE01FE01030303030303000000007F1C
:1078DC0000FF00C30183018301C301FF00FF01838B
:1078EC0003030303038303FF01FF0000000000F800
:1078FC0000FC018E030603030003000300030003D6
:10790C0000030006038E03FC01F800000000007F5A
:10791C0000FF00C3018301030303030303030303F9
:10792C000303038301C301FF007F0000000000FF7D
:10793C0003FF030300030003000300FF00FF000329
:10794C0000030003000300FF03FF0300000000FF1F
:10795C0003FF030300030003000300FF00FF000309
:10796C00000300030003000300030000000000F804
:10797C0001FC030E03060003000300E303E303030F
:10798C0003030306030E03FC03F8030000000003CB
:10799C000303030303030303030303FF03FF0303B3
:1079AC000303030303030303030303000000FCFCB2
:1079BC0030303030303030303030FCFC00000000E3
:1079CC000300030003000300030003000300030093
:1079DC0003030303038701FE01FC00000000000306
:1079EC00038303C301E30073003B001F001F003B34
:1079FC00007300E300C301830303030000000003D2
:107A0C000003000300030003000300030003000352
:107A1C0000030003000300FF03FF0300000000034A
:107A2C000387038703CF03CF037B037B033303332A
:107A3C000303030303030303030303000000000316
:107A4C0003070307030F031B031B033303330363F6
:107A5C00036303C303830383030303000000007861
:107A6C0000FC00CE0186010303030303030303039D
:107A7C000303038601CE01FC00780000000000FF28
:107A8C0000FF0183030303030303038303FF01FFCD
:107A9C000003000300030003000300000000007853
:107AAC0000FC00CE0186010303030303030303035D
:107ABC00036303E601CE01FC03780300000000FF22
:107ACC0000FF0183030303030303038303FF01FF8D
:107ADC00007300E300C3018303030300000000FCF8
:107AEC0000FE018703030303000700FE00FC018076
:107AFC0003000303038703FE01FC0000000000FEEB
:107B0C0001FE013000300030003000300030003019
:107B1C000030003000300030003000000000000366
:107B2C000303030303030303030303030303030319
:107B3C0003030303038601FE01FC000000000003A5
:107B4C000303030303860186018601CC00CC00CC21
:107B5C00007800780078003000300000000000034E
:107B6C000303030303030303030303030333033379
:107B7C00037B03CF03870387030303000000000389
:107B8C0003030386018601CC0078003000300078B6
:107B9C0000CC0086018601030303030000000003F0
:107BAC0003030386018601CC00CC007800780030FA
:107BBC00003000300030003000300000000000FFCA
:107BCC0003FF0380018001C000600030003000180A
:107BDC00000C0006000600FF03FF03000000FCFC85
:107BEC000C0C0C0C0C0C0C0C0C0CFCFC0000000019
:107BFC00000100030007000E001C0038007000E0BC
:107C0C0000C0018003000700060000000000FCFC1F
:107C1C00C0C0C0C0C0C0C0C0C0C0FCFC00000020C0
:107C2C00007000F800DC018E03070703060000005B
:107C3C000000000000000000000000000000000038
:107C4C000000000000000000000000000000000028
:107C5C0000000000000000FF07FF0700000000709C
:107C6C007070303060000000000000000000000068
:107C7C00000000000000000000FC01FE030003FCFB
:107C8C0003FE0303030303FF03FE030000000003D2
:107C9C00000300030003000300FB00FF0187030344
:107CAC0003030303038303FF01FF00000000000034
:107CBC00000000000000000000FC00FE01070303B0
:107CCC0000030003000703FE01FC0000000000009D
:107CDC000300030003000300037C03FE03C703033C
:107CEC0003030303030703FE03FC0300000000006F
:107CFC00000000000000000000FC00FE010703FF74
:107D0C0003FF0103000700FE01FC00000000F0F877
:107D1C001C0C0C0C7F7F0C0C0C0C0C0C00000000D1
:107D2C000000000000FC03FE03070303038703FEAF
:107D3C00037C0300038003FE01FE0000000000032F
:107D4C000003000300030003007B00FF00C7018356
:107D5C000183018301830183018301000000000082
:107D6C0030300038383030303030FCFC0000C0C0CF
:107D7C0000E0E0C0C0C0C0C0C0CCFC780000000671
:107D8C00000600060006000600C600E60076003E6F
:107D9C00003E007600E600C601860100000038387F
:107DAC0030303030303030303030FCFC00000000EF
:107DBC00000000000000000000CD00FF01FF0333B5
:107DCC000333033303330333033303000000000096
:107DDC00000000000000000000FE00FE018603060B
:107DEC000306030603060306030603000000000057
:107DFC00000000000000000000FC00FE01870303EF
:107E0C0003030303038703FE01FC000000000000D2
:107E1C000000000000FF00FF01830303030303873E
:107E2C0003FF01FB0003000300030000000000003F
:107E3C000000000000FC03FE030703030303038799
:107E4C0003FE037C0300030003000300000000009A
:107E5C00000000000000000000F601FE030E030607
:107E6C0000060006000600060006000000000000E8
:107E7C000000007EFF037FFEC0C0FF7E0000000CF0
:107E8C000C0C0C7F7F0C0C0C0C0CFCF80000000094
:107E9C0000000000000000000003030303030303C1
:107EAC0003030303038703FE037C030000000000AD
:107EBC00000000000000000000030303038601869D
:107ECC0001CC00CC007800780030000000000000ED
:107EDC0000000000000000000033033303330333C1
:107EEC000333037B03FE01CE01840000000000007D
:107EFC000000000000000000008301C701EE007CC0
:107F0C000038007C00EE00C7018301000000000077
:107F1C00000000000086018601CC00CC00780078BF
:107F2C000030003000180018000C000000000000A9
:107F3C00000000000000000000FF01FF00600030A6
:107F4C000018000C000600FF01FF010000000000FB
:107F5C0000E001F0013800180018001C000E001C95
:107F6C0000180018003800F001E00100000030306B
:107F7C0030303030003030303030303000000000E5
:107F8C00001E003E00700060006000E000C001E0D8
:107F9C00006000600070003E001E00000000000049
:107FAC000000001C03B601E300000000000000000C
:107FBC0000000000000000000000000000000000B5
:107FCC000000000000000030007800CC00860103A7
:107FDC00030303FF03FF030000000000005265636E
:107FEC00656976696E670052656164790053656EE8
:037FFC006400001E
:020000040030CA
:0E000000FF281F3CFFBF85FF0FC00FE00F4021
:00000001FF
